S01700004763634170706C69636174696F6E322E737265635A
S11300000C942A000C943F000C943F000C943F0085
S11300100C943F000C943F000C943F000C943F0060
S11300200C943F000C943F000C943F000C943F0050
S11300300C943F000C943F000C943F000C943F0040
S11300400C943F000C943F000C943F000C943F0030
S11300500C943F0011241FBECFE5D8E0DEBFCDBF16
S113006010E0A0E6B0E0EAE3F5E002C005900D92EE
S1130070A037B107D9F70E9424020C949B020C9478
S1130080000084B3837C84BB81B3877181BB82B35A
S1130090886E82BB0895CF92DF92EF92FF92CC24B8
S11300A0CA94DC2C760150E060E03FC024B3E52F15
S11300B0F0E0DF01129681E090E002C0880F991F02
S11300C0AA95E2F7922F982B94BB25B3982F90957D
S11300D0822F892385BB80E023C0882341F08130AF
S11300E041F0823041F0833041F443E007C047E0FF
S11300F005C046E003C045E001C040E020B330E065
S113010002C0359527954A95E2F720FD08C024B32F
S1130110922394BB6F01E82EF12C61E003C08F5F42
S11301208430D8F2611104C05F5F543008F4BECF4C
S1130130C701B601FF90EF90DF90CF900895CF9361
S1130140DF93CDB7DEB760970FB6F894DEBF0FBE6E
S1130150CDBF0E944B009B016F3F4FEF7407F9F036
S11301608F3F2FEF9207D1F020E1E0E6F0E0DE01CF
S1130170119601900D922A95E1F7FB01EE0FFF1FF6
S1130180EE0FFF1F21E030E02C0F3D1FE20FF31FA5
S1130190E80FF91F8081282F30E001C09C01C901BC
S11301A060960FB6F894DEBF0FBECDBFDF91CF913E
S11301B008959AB380E498279ABB95E09A95F1F74D
S11301C000009AB389278ABB0895CF93C82F8295DC
S11301D08F7098B3987E98BB80FF03C098B39160EA
S11301E098BB81FF03C098B3926098BB82FF03C0A1
S11301F098B3946098BB887019F088B3806188BB09
S11302000E94D90088B3887E88BBC0FF03C088B32E
S1130210816088BBC1FF03C088B3826088BBC2FF12
S113022003C088B3846088BBC3FF03C088B3806104
S113023088BB0E94D90088B3887E88BBCF9108957B
S1130240CF93C82F82958F709BB390619BBB98B35B
S1130250987E98BB80FF03C098B3916098BB81FFE0
S113026003C098B3926098BB82FF03C098B39460B4
S113027098BB887019F088B3806188BB0E94D9004C
S113028088B3887E88BBC0FF03C088B3816088BB05
S1130290C1FF03C088B3826088BBC2FF03C088B3B8
S11302A0846088BBC3FF03C088B3806188BB0E949D
S11302B0D90088B3887E88BBCF9108959BB39F7E75
S11302C09BBB98B3987E98BB80FF03C098B39160A2
S11302D098BB81FF03C098B3926098BB82FF03C0B0
S11302E098B3946098BB83FF03C088B3806188BBD4
S11302F00E94D90088B3887E88BB089587B387613C
S113030087BB8AB380658ABB2FEF81EE94E02150CE
S113031080409040E1F700C0000083E00E945E014D
S11303202FEF81EE94E0215080409040E1F700C02F
S1130330000083E00E945E018FE193E00197F1F7F2
S113034000C0000083E00E945E018FE193E001970A
S1130350F1F700C0000082E00E945E018FE891E0A6
S11303600197F1F700C0000088E20E94E5008FEEDB
S113037090E00197F1F700C0000088E00E94E500DA
S11303808FEE90E00197F1F700C0000081E00E9439
S1130390E5009FEF2DEE82E0915020408040E1F790
S11303A000C0000086E00E94E5008FEE90E0019717
S11303B0F1F700C000008CE00E94E5008FEE90E0B1
S11303C00197F1F700C0000008958B3249F018F44A
S11303D08A3271F01EC08D3239F08F3289F019C023
S11303E0CB01840F951F0895CB01841B950B0895B1
S11303F0649FC001659F900D749F900D1124089512
S11304004115510549F0CB01BA010E947302CB0199
S1130410089580E090E0089580E090E008958B32A4
S1130420910551F08D32910549F08A32910541F0E0
S11304308F9741F480E0089580E0089580E0089566
S113044080E0089581E008950E947E010E944100A9
S11304500E949F008C010F3F8FEF180751F0C801D5
S11304600E940F02882329F080E3800F0E9420015C
S1130470EFCF0F3F8FEF180759F3C8010E940F0207
S11304808111E6CF802F0E942001E12CF12C0E94E3
S11304909F00EC01CF3F8FEFD807B9F0CE010E9447
S11304A00F02882391F0C701880F991FEE0CFF1CDF
S11304B0EE0CFF1CEE0CFF1CE80EF91EEC0EFD1EEC
S11304C08C2F805D0E942001E2CFED9701F78DE330
S11304D00E942001A70160E070E0802F0E94E501E6
S11304E00E942001B5CF97FB072E16F4009407D085
S11304F077FD09D00E94870207FC05D03EF4909551
S113050081959F4F0895709561957F4F0895AA1B1B
S1130510BB1B51E107C0AA1FBB1FA617B70710F0EA
S1130520A61BB70B881F991F5A95A9F7809590951C
S10D0530BC01CD010895F894FFCF3B
S113053A3132332B3435362D3738392A63303D2F4F
S9030000FC
